:1000000018308A00002800000A108A100A1182079E
:1000100028340C34013406348C36613BE9357538AC
:100020006132653A691DA53A00008C36613B691062
:10003000EB3AF43A20326F36E43A00000A26753A79
:10004000E6326E10E237F3306C3A69372110000067
:100050008C396139E93575386132653A691DA53ADF
:1000600000018C3961396910EB3AF43A20326F366D
:10007000E43A00010A26753AE6326E10E237F330B0
:100080006C3A6937211000008C3569396D17EB3AED
:10009000F030E432F434BA1275008C356939ED343D
:1000A000FA34EB3AF43AE4376C3275000A26753AC2
:1000B000E6326E10E237F3306C3A693721100000F7
:1000C0008C29E93C6134EB3AF030E432F434BA1272
:1000D00075008C39E93C6134A035753A7510E43708
:1000E0006C3275000A26753AE6326E10E237F3304C
:1000F0006C3A6937211000000C31E139EC30EE33F5
:10010000E931A0256F37F53675008C21E939E936DC
:10011000A020EC3369366137E43400010A3B6F36C6
:10012000F4306A1DA01266008C257538BA3569391D
:10013000ED34FA3400010A3B6F36F4306A1DA01228
:1001400066008C257538BA36613B69000A3B6F360C
:10015000F4306A1DA01266008C257538BA396139F1
:1001600069000A3B6F36F4306A1DA01266008C25C8
:100170007538BA39E93C613400010A3B6F36F43016
:100180006A1DA01266000C2169366937ED32F9321A
:100190006E10C334F3346D000A3B6F36F4306A1DC1
:1001A000A01266008C21E939E936A02CEF35000158
:1001B0000A3B6F36F430EA183A102533000040301D
:1001C0008400831300080319F3280130F800F701B5
:1001D000F70BE828F80BE7284A30F700F70BEE2872
:1001E000F128800BE52808004718F8280812F9289C
:1001F0000816831608128312C718002988120129CD
:1002000088168316881283124719082908130929AA
:100210000817831608138312C71910298813112988
:100220008817831688130000831209158316091195
:100230001929831209118316091183120800C801B4
:100240008316081600308312081A0130C80483167A
:10025000881600308312881A0130F7000310F70D5A
:100260007708C8048316081700308312081B013072
:10027000F700F70DF70DFC30F7057708C804831673
:10028000881700308312881B0130F700F70DF70D37
:10029000F70DF830F7057708C8044808F80008009B
:1002A0008316091109108910831209108316091089
:1002B0000816881608178817831289148316891060
:1002C00000008312091583160911000083121F21F3
:1002D0007808C70009118316091100008312091557
:1002E00083160911000083121F217808C600091126
:1002F0008316091108128812081388138312470EF7
:10030000F700F030F70577084604F8007808C600D3
:10031000C61F8C2983165829C408031D912909106A
:10032000922909148316091000008312891083167C
:100330008910000083120911831609118312450EDA
:10034000C6000F30C6054608C700F42045080F391F
:10035000C600C700F420080083160812881208138C
:1003600088130911091089108312091083160910C6
:1003700083128910831689108312091183160911BB
:100380000F308312C000DF200130B2003208033C7E
:10039000031CD2290330C700F4200530C000DF2041
:1003A000B20AC6290230C700F4200530C000DF20A1
:1003B000B2013208033C031CE62932080420B300D2
:1003C000C4013308C5005021B20AD9298A150A167A
:1003D0002928410BEC29EF294030C200F029C20145
:1003E00001304002C20742088038C300C4014308FC
:1003F000C500502108003F08073A0319092A0B3AA3
:1004000003190E2A063A0319162A023A03191C2A5E
:10041000212A0130C000C100E921262AC40101308F
:10042000C50050210230C000DF20262A0130C00064
:100430000230C100E921262AC4011030C500502134
:10044000262A0130C4003F08C500502108000B08CF
:10045000B2008B13831603178C170C1400000000D6
:1004600083120C087F3903196E2A0313B300031794
:100470000D080313B40003170F080313B500330866
:10048000BF00FB21340803178D0003133508031741
:100490008F0083168C170C140000000083120C0DC3
:1004A0000E0D7F3903196E2A0313B30003170D08CD
:1004B0000313B40003170F080313B5003308BF007C
:1004C000FB21340803178D000313350803178F0031
:1004D0008D0A03198F0A03132A2A03170313B21B69
:1004E0008B1708001230B302031C852A33308400B6
:1004F0008313FC3080050310800C800C0008031966
:10050000852A832A0000800B822A08007C3003178A
:100510008D0000308F0003132722A0012008313CFA
:10052000031CB02A83160610831206140230C00082
:10053000DF200530B2007F30B3007222B20B9B2A5D
:1005400083160610831206101130C000DF2002301F
:10055000B200AC30B3007222B20BA92AA00A8E2AD4
:100560000430B200FA30C000DF20B20BB22AA00182
:100570002008313C031CDA2A831686108312861465
:100580000130C000DF200230B200F730B300722229
:10059000B20BC52A83168610831286101230C00053
:1005A000DF200230B200F730B3007222B20BD32A40
:1005B000A00AB82A0430B200FA30C000DF20B20B23
:1005C000DC2AA0012008313C031CFF2A83160611F7
:1005D00083120615A630F700F70BEC2A00008316ED
:1005E0000611831206111330C000DF200230B20062
:1005F000F730B3007222B20BF82AA00AE22A0430C4
:10060000B200FA30C000DF20B20B012BA00120089D
:100610001D3C031C242B8316861183128615A630DD
:10062000F700F70B112B0000831686118312861139
:100630001330C000DF200230B200F730B300722266
:10064000B20B1D2BA00A072B0430B200FA30C000F9
:10065000DF20B20B262B08008E30F7003308F8009D
:100660003208F900FA01F808031D402B7908F80058
:10067000F9010830F702F808031D402BF701482B59
:100680000310F81B472BF90DF80DF703402BF81357
:1006900008003F080319B92BC70043080319B92BF9
:1006A000C70703185A2B7F30C702031CB92B031945
:1006B000B92B5E2B8130C7070318B92B4708F70009
:1006C000F801F901FA014008CB00CB174108CA0034
:1006D0004208C9001830C700C801491C872B4608CA
:1006E000FA07031C792BF90A031D792BF80A031961
:1006F000C8174508F907031C802BF80A0319C81707
:100700004408C100C1174108F8070318C817C80DED
:10071000F80CF90CFA0CCB0CCA0CC90C0310C70B63
:100720006C2B0130F7070318B92BF81B9E2BCB0D50
:10073000FA0DF90DF80DF7030319B92BCB1FAF2BE9
:10074000FA0A031DAF2BF90A031DAF2BF80A031D8C
:10075000AF2BF80CF90CFA0CF70A0319B92B400867
:10076000C8004408C806C81FB72BF817BD2BF813DC
:10077000BD2BF701F801F901FA0108003308BA00AE
:100780003708BA06BA1FC92B03110310B31B031491
:10079000FC2B3308BA003608BB003208BB02031931
:1007A000D72BBA1FFC2B0308013A8300FC2B370818
:1007B000BB003308BB020319E32BBA1FFC2B030851
:1007C000013A8300FC2B3808BB003408BB02031934
:1007D000EF2BBA1FFC2B0308013A8300FC2B3908CE
:1007E000BB003508BB020319FB2BBA1FFC2B030807
:1007F000013A8300FC2B031008000B08B3008B1395
:10080000831603178C170C140000000003182F2CFC
:1008100083120C087F390313B40003170D08031368
:10082000B50003170F080313B6003408BF00FB21FF
:10083000350803178D000313360803178F0083163E
:100840008C170C140000000083120313B20B292C28
:100850002C2C831603172F2C4E2C83160317831270
:100860000C0D0E0D7F390313B40003170D0803138D
:10087000B50003170F080313B6003408BF00FB21AF
:10088000350803178D000313360803178F008D0AF0
:1008900003198F0A03100313B20B002CB31B8B1721
:1008A00008008318562C473084008313F701F801A1
:1008B000F901FA01C701C801C901CA014608450486
:1008C000440443040319942C2030CB000310BF0DC3
:1008D000C00DC10DC20DC70DC80DC90DCA0D46080A
:1008E0004A02031D7D2C45084902031D7D2C440846
:1008F0004802031D7D2C43084702031C8E2C43082D
:10090000C7024408031C440FC8024508031C450FD6
:10091000C9024608031C460FCA020314F70DF80D5E
:10092000F90DFA0DCB0B662C47088000840A4808A5
:100930008000840A49088000840A4A088000080070
:100940000408B7003608B9000319BF2C3508C200E7
:100950003408C1003308C0003208BF00C601C50119
:100960002030C4008230C30049237A08B5007908DA
:10097000B4007808B3007708B200B90BA62C35088C
:10098000C2003408C1003308C0003208BF003F086D
:10099000B63CBF00FA014008C300C0170310C00CEA
:1009A000C10CC20CFA0CF90CF80CF70CBF0BCE2CD6
:1009B000C31FE52CF709F809F909FA09F70A031921
:1009C000F80A0319F90A0319FA0A7A08B50079082E
:1009D000B4007808B3007708B200B51FFC2CB70349
:1009E000B716B209B309B409B509B20A0319B30AB3
:1009F0000319B40A0319B50A3B30BE009A30BD0092
:100A0000CA30BC00BB010A30B90036080319B70A66
:100A100083143230840083133508C2003408C100C7
:100A20003308C0003208BF003E08C6003D08C500BC
:100A30003C08C4003B08C30051247808F708031D94
:100A4000342D360A39020319342D37080319362D8F
:100A50000F39390203192E2D0318662DB71B662D89
:100A6000371B362D2030622D2030B705B71E442DA0
:100A7000B7123608031DB7037708B7002D30BF0043
:100A8000FB213708F700B70136083902031D522D44
:100A90007708B7002E30BF00FB213708F700203061
:100AA000B70500303030B71E622DB7123608031D6F
:100AB000B7037708B7002D30BF00FB213708F700D8
:100AC000B7013030F7077708BF00FB2183103E08DD
:100AD000C2003D08C1003C08C0003B08BF00C60181
:100AE000C501C4010A30C30051247A08BE00790848
:100AF000BD007808BC007708BB00B90B082D0800C2
:100B00003508F80134020318882D3408F700942DB5
:100B1000F7010830B600B40DF70D35087702031859
:100B2000F700F80DB60B8B2D080078083208B400DA
:100B30006430B50080257708B20078083030031D96
:100B4000A82DB31CAF2DB319AF2D331A2030AB2D08
:100B5000B31133123314F8077808BF00FB213208B1
:100B6000B4000A30B50080257708B200780830302C
:100B7000031DC02DB319C42D331CC42D331A2030CE
:100B8000F8077808BF00FB213030B2073208BF00F9
:040B9000FB2108003D
:101000000230B200FA30C0008A11DF208A15B20B1C
:101010000228A00120081D3C031C2B2883168611E2
:10102000831286150430B200DE30B3008A117222BA
:101030008A15B20B14288316861183128611133079
:10104000C0008A11DF208A156430B3008A11722231
:101050008A15A00A0A280430B200FA30C0008A11AA
:10106000DF208A15B20B2D28A0012008313C031C7B
:10107000562883160611831206150430B200C530B7
:10108000B3008A1172228A15B20B3F28831606110B
:10109000831206111330C0008A11DF208A15C83070
:1010A000B3008A1172228A15A00A35280430B200D2
:1010B000FA30C0008A11DF208A15B20B5828A0012F
:1010C0002008313C031C8A2883168610831286145C
:1010D0000130C0008A11DF208A150430B200AC3024
:1010E000B3008A1172228A15B20B6F2883168610FC
:1010F000831286101230C0008A11DF208A15023058
:10110000B2009330B3008A1172228A15B20B812883
:10111000A00A60283230C0008A11DF208A15A001A1
:101120002008313C031CB6288316861083128614CF
:101130000130C0008A11DF208A150430B200C530AA
:10114000B3008A1172228A15B20B9F28831686106B
:10115000831286101230C0008A11DF208A15C83031
:10116000B3008A1172228A15A00A90283230C0007A
:101170008A11DF208A15A0012008313C031CE228D7
:1011800083168610831286140130C0008A11DF2076
:101190008A150430B200DE30B3008A1172228A153B
:1011A000B20BCB2883168610831286101230C00033
:1011B0008A11DF208A156430B3008A1172228A15E1
:1011C000A00ABC280430B200FA30C0008A11DF2027
:1011D0008A15B20BE428A00120081D3C031C0D2930
:1011E0008316861183128615A630F700F70BF628B2
:1011F000000083168611831286111330C0008A11F5
:10120000DF208A150230B200F730B3008A11722253
:101210008A15B20B0429A00AEC280430B200FA3077
:10122000C0008A11DF208A15B20B0F29A001200807
:10123000313C031C39298316061183120615E83048
:10124000F700F70B212924290000831606118312C9
:1012500006111330C0008A11DF208A150230B20057
:101260009330B3008A1172228A15B20B3029A00A7A
:1012700017290430B200FA30C0008A11DF208A1525
:10128000B20B3B29A00120081D3C031C64298316D6
:10129000861183128615A630F700F70B4D29000042
:1012A00083168611831286111330C0008A11DF2045
:1012B0008A150230B200F730B3008A1172228A1503
:1012C000B20B5B29A00A43290430B200FA30C000F7
:1012D0008A11DF208A15B20B6629A0012008313C53
:1012E000031C982983168610831286140130C000CF
:1012F0008A11DF208A150230B200F730B3008A115C
:1013000072228A15B20B7D298316861083128610ED
:101310001230C0008A11DF208A150230B200F73087
:10132000B3008A1172228A15B20B8F29A00A6E2986
:101330000430B200FA30C0008A11DF208A15B20BE7
:101340009A29A0012008313C031CC82983160610E5
:10135000831206140130C0008A11DF208A15043080
:10136000B200DE30B3008A1172228A15B20BB129A5
:1013700083160610831206101230C0008A11DF2077
:101380008A156430B3008A1172228A15A00AA22934
:101390000430B200FA30C0008A11DF208A15B20B87
:1013A000CA29A0012008313C031CF4298316061128
:1013B00083120615E830F700F70BDC29DF2900005F
:1013C00083160611831206111330C0008A11DF2024
:1013D0008A150230B2009330B3008A1172228A1546
:1013E000B20BEB29A00AD2290430B200FA30C000B7
:1013F0008A11DF208A15B20BF629A0012008313CA2
:10140000031C242A83168610831286140130C00020
:101410008A11DF208A150430B200C530B3008A116A
:1014200072228A15B20B0D2A83168610831286103B
:101430001230C0008A11DF208A15C830B3008A112B
:1014400072228A15A00AFE290430B200FA30C000C8
:101450008A11DF208A15B20B262AA00120081D3C24
:10146000031C462A83168611831286150130C0009C
:101470008A11DF208A158316861183128611133094
:10148000C0008A11DF208A15A00A2E2A0430B2007B
:10149000FA30C0008A11DF208A15B20B482AA00159
:1014A0002008313C031C712A83160611831206158D
:1014B000A630F700F70B5A2A000083160611831294
:1014C00006111330C0008A11DF208A150230B200E5
:1014D000F730B3008A1172228A15B20B682AA00A6B
:1014E000502A0430B200FA30C0008A11DF208A1579
:1014F000B20B732AA0012008313C031CA52A8316D5
:101500008610831286140130C0008A11DF208A15EC
:101510000230B200F730B3008A1172228A15B20B82
:101520008A2A83168610831286101230C0008A1110
:10153000DF208A150230B200F730B3008A11722220
:101540008A15B20B9C2AA00A7B2A0430B200FA301A
:10155000C0008A11DF208A15B20BA72A0130A30729
:10156000443003178D0000308F0003100F30031339
:10157000B2008A11FD238A152308B2001B30B30084
:101580008A1195258A150830B200FA30C0008A11F8
:10159000DF208A15B20BC52A2308013C0318092B4A
:1015A0004D3003178D0000308F008A11031327225E
:1015B0008A15563003178D0000308F008A110313EF
:1015C00027228A15A0012008133C031CFF2A25109E
:1015D000250883168700831207146430C0008A111F
:1015E000DF208A152510250883168700831207102F
:1015F0006430C0008A11DF208A15A00AE32AA30103
:101600000830B200FA30C0008A11DF208A15B20B10
:10161000022B8A150A168E290230B200FA30C00059
:101620008A11DF208A15B20B0E2BA00120081D3C69
:10163000031C372B83168611831286150430B200E3
:10164000DE30B3008A1172228A15B20B202B83166A
:101650008611831286111330C0008A11DF208A158B
:101660006430B3008A1172228A15A00A162B043046
:10167000B200FA30C0008A11DF208A15B20B392B74
:10168000A0012008313C031C622B83160611831233
:1016900006150430B200C530B3008A1172228A15D3
:1016A000B20B4B2B83160611831206111330C000A8
:1016B0008A11DF208A15C830B3008A1172228A1578
:1016C000A00A412B0430B200FA30C0008A11DF209A
:1016D0008A15B20B642BA0012008313C031C962B09
:1016E00083168610831286140130C0008A11DF2011
:1016F0008A150430B200AC30B3008A1172228A1508
:10170000B20B7B2B83168610831286101230C0001A
:101710008A11DF208A150230B2009330B3008A119B
:1017200072228A15B20B8D2BA00A6C2B3230C000AE
:101730008A11DF208A15A0012008313C031CC22B2E
:1017400083168610831286140130C0008A11DF20B0
:101750008A150430B200C530B3008A1172228A158E
:10176000B20BAB2B83168610831286101230C0008A
:101770008A11DF208A15C830B3008A1172228A15B7
:10178000A00A9C2B3230C0008A11DF208A15A001EC
:101790002008313C031CEE2B83168610831286141E
:1017A0000130C0008A11DF208A150430B200DE301B
:1017B000B3008A1172228A15B20BD72B83168610BA
:1017C000831286101230C0008A11DF208A1564301F
:1017D000B3008A1172228A15A00AC82B0430B20005
:1017E000FA30C0008A11DF208A15B20BF02BA0015D
:1017F00020081D3C031C192C8316861183128615A4
:10180000A630F700F70B022C000083168611831216
:1018100086111330C0008A11DF208A150230B20011
:10182000F730B3008A1172228A15B20B102CA00A6D
:10183000F82B0430B200FA30C0008A11DF208A157C
:10184000B20B1B2CA0012008313C031C452C831635
:10185000061183120615E830F700F70B2D2C302CFB
:10186000000083160611831206111330C0008A117E
:10187000DF208A150230B2009330B3008A11722241
:101880008A15B20B3C2CA00A232C0430B200FA308B
:10189000C0008A11DF208A15B20B472CA001200856
:1018A0001D3C031C702C8316861183128615A630EE
:1018B000F700F70B592C000083168611831286114E
:1018C0001330C0008A11DF208A150230B200F730D1
:1018D000B3008A1172228A15B20B672CA00A4F2C12
:1018E0000430B200FA30C0008A11DF208A15B20B32
:1018F000722CA0012008313C031CA42C83168610F6
:10190000831286140130C0008A11DF208A1502304C
:10191000B200F730B3008A1172228A15B20B892CFB
:1019200083168610831286101230C0008A11DF20C1
:101930008A150230B200F730B3008A1172228A157C
:10194000B20B9B2CA00A7A2C0430B200FA30C000F3
:101950008A11DF208A15B20BA62CA0012008313C89
:10196000031CD82C83160610831206140130C00005
:101970008A11DF208A150230B200F730B3008A11D5
:1019800072228A15B20BBD2C831606108312061024
:101990001230C0008A11DF208A150230B200F73001
:1019A000B3008A1172228A15B20BCF2CA00AAE2C7A
:1019B0000430B200FA30C0008A11DF208A15B20B61
:1019C000DA2CA0012008313C031C042D83160611DB
:1019D00083120615E830F700F70BEC2CEF2C000013
:1019E00083160611831206111330C0008A11DF20FE
:1019F0008A150230B2009330B3008A1172228A1520
:101A0000B20BFB2CA00AE22C0430B200FA30C0006A
:101A10008A11DF208A15B20B062DA0012008313C67
:101A2000031C342D83168610831286140130C000E7
:101A30008A11DF208A150430B200C530B3008A1144
:101A400072228A15B20B1D2D831686108312861002
:101A50001230C0008A11DF208A15C830B3008A1105
:101A600072228A15A00A0E2D0430B200FA30C0008E
:101A70008A11DF208A15B20B362DA00120081D3CEB
:101A8000031C562D83168611831286150130C00063
:101A90008A11DF208A15831686118312861113306E
:101AA000C0008A11DF208A15A00A3E2D0430B20042
:101AB000FA30C0008A11DF208A15B20B582DA00120
:101AC0002008313C031C812D831606118312061554
:101AD000A630F700F70B6A2D00008316061183125B
:101AE00006111330C0008A11DF208A150230B200BF
:101AF000F730B3008A1172228A15B20B782DA00A32
:101B0000602D0430B200FA30C0008A11DF208A153F
:101B1000B20B832DA0012008313C031CB52D831688
:101B20008610831286140130C0008A11DF208A15C6
:101B30000230B200F730B3008A1172228A15B20B5C
:101B40009A2D83168610831286101230C0008A11D7
:101B5000DF208A150230B200F730B3008A117222FA
:101B60008A15B20BAC2DA00A8B2D0430B200FA30CE
:101B7000C0008A11DF208A15B20BB72D0130A107F2
:101B80000C3003178D0000308F0003100E3003134C
:101B9000B2008A11FD238A152108B2001B30B30060
:101BA0008A1195258A150830B200FA30C0008A11D2
:101BB000DF208A15B20BD52D2108013C0318192E00
:101BC000153003178D0000308F008A110313272270
:101BD0008A151E3003178D0000308F008A11031301
:101BE00027228A15A0012008133C031C0F2E251064
:101BF000250883168700831207146430C0008A11F9
:101C0000DF208A1525102508831687008312071008
:101C10006430C0008A11DF208A15A00AF32DA101CB
:101C20000830B200FA30C0008A11DF208A15B20BEA
:081C3000122E8A150A16002A83
:102000000230B200FA30C0000A12DF200A16B20B0A
:102010000228A00120081D3C031C2B2883168611D2
:10202000831286150430B200DE30B3000A12722229
:102030000A16B20B142883168611831286111330E8
:10204000C0000A12DF200A166430B3000A1272229E
:102050000A16A00A0A280430B200FA30C0000A1298
:10206000DF200A16B20B2D28A0012008313C031CEA
:10207000562883160611831206150430B200C530A7
:10208000B3000A1272220A16B20B3F2883160611F9
:10209000831206111330C0000A12DF200A16C8305E
:1020A000B3000A1272220A16A00A35280430B200C0
:1020B000FA30C0000A12DF200A16B20B5828A0011D
:1020C0002008313C031C8A2883168610831286144C
:1020D0000130C0000A12DF200A160430B200AC3012
:1020E000B3000A1272220A16B20B6F2883168610EA
:1020F000831286101230C0000A12DF200A16023046
:10210000B2009330B3000A1272220A16B20B812871
:10211000A00A60283230C0000A12DF200A16A0018F
:102120002008313C031CB6288316861083128614BF
:102130000130C0000A12DF200A160430B200C53098
:10214000B3000A1272220A16B20B9F288316861059
:10215000831286101230C0000A12DF200A16C8301F
:10216000B3000A1272220A16A00A90283230C00068
:102170000A12DF200A16A0012008313C031CE228C5
:1021800083168610831286140130C0000A12DF20E5
:102190000A160430B200DE30B3000A1272220A16A8
:1021A000B20BCB2883168610831286101230C00023
:1021B0000A12DF200A166430B3000A1272220A16CD
:1021C000A00ABC280430B200FA30C0000A12DF2096
:1021D0000A16B20BE428A00120081D3C031C0D299F
:1021E0008316861183128615A630F700F70BF628A2
:1021F000000083168611831286111330C0000A1264
:10220000DF200A160230B200F730B3000A12722241
:102210000A16B20B0429A00AEC280430B200FA30E6
:10222000C0000A12DF200A16B20B0F29A0012008F5
:10223000313C031C39298316061183120615E83038
:10224000F700F70B212924290000831606118312B9
:1022500006111330C0000A12DF200A160230B20045
:102260009330B3000A1272220A16B20B3029A00A68
:1022700017290430B200FA30C0000A12DF200A1613
:10228000B20B3B29A00120081D3C031C64298316C6
:10229000861183128615A630F700F70B4D29000032
:1022A00083168611831286111330C0000A12DF20B4
:1022B0000A160230B200F730B3000A1272220A1670
:1022C000B20B5B29A00A43290430B200FA30C000E7
:1022D0000A12DF200A16B20B6629A0012008313C41
:1022E000031C982983168610831286140130C000BF
:1022F0000A12DF200A160230B200F730B3000A12C9
:1023000072220A16B20B7D2983168610831286105C
:102310001230C0000A12DF200A160230B200F73075
:10232000B3000A1272220A16B20B8F29A00A6E2974
:102330000430B200FA30C0000A12DF200A16B20BD5
:102340009A29A0012008313C031CC82983160610D5
:10235000831206140130C0000A12DF200A16C830AA
:10236000B3000A1272220A16831606108312061090
:102370001230C0000A12DF200A160230B200933079
:10238000B3000A1272220A16B20BBF29A00AA229B0
:102390000430B200FA30C0000A12DF200A16B20B75
:1023A000CA29A0012008313C031CF4298316061118
:1023B00083120615E830F700F70BDC29DF2900004F
:1023C00083160611831206111330C0000A12DF2093
:1023D0000A160230B2009330B3000A1272220A16B3
:1023E000B20BEB29A00AD2290430B200FA30C000A7
:1023F0000A12DF200A16B20BF629A0012008313C90
:10240000031C242A83168610831286140130C00010
:102410000A12DF200A160430B200C530B3000A12D7
:1024200072220A16B20B0D2A8316861083128610AA
:102430001230C0000A12DF200A16C830B3000A1298
:1024400072220A16A00AFE290430B200FA30C00037
:102450000A12DF200A16B20B262AA00120081D3C12
:10246000031C462A83168611831286150130C0008C
:102470000A12DF200A168316861183128611133082
:10248000C0000A12DF200A16A00A2E2A0430B20069
:10249000FA30C0000A12DF200A16B20B482AA00147
:1024A0002008313C031C712A83160611831206157D
:1024B000A630F700F70B5A2A000083160611831284
:1024C00006111330C0000A12DF200A160230B200D3
:1024D000F730B3000A1272220A16B20B682AA00A59
:1024E000502A0430B200FA30C0000A12DF200A1667
:1024F000B20B732AA0012008313C031CA52A8316C5
:102500008610831286140130C0000A12DF200A16DA
:102510000230B200F730B3000A1272220A16B20B70
:102520008A2A83168610831286101230C0000A127F
:10253000DF200A160230B200F730B3000A1272220E
:102540000A16B20B9C2AA00A7B2A0430B200FA3089
:10255000C0000A12DF200A16B20BA72A0130A20718
:10256000283003178D0000308F0003100E30031346
:10257000B2000A12FD230A162208B2001B30B30073
:102580000A1295250A160830B200FA30C0000A1265
:10259000DF200A16B20BC52A2208023C031D092BB4
:1025A000313003178D0000308F000A1203132722E9
:1025B0000A163A3003178D0000308F000A120313F9
:1025C00027220A16A0012008133C031CFF2A25100D
:1025D000250883168700831207146430C0000A128E
:1025E000DF200A162510250883168700831207109E
:1025F0006430C0000A12DF200A16A00AE32AA201F2
:102600000830B200FA30C0000A12DF200A16B20BFE
:10261000022B8A150A166F2A0230B200FA30C00067
:102620000A12DF200A16B20B0E2BA00120081D3C57
:10263000031C372B83168611831286150430B200D3
:10264000DE30B3000A1272220A16B20B202B831658
:102650008611831286111330C0000A12DF200A1679
:102660006430B3000A1272220A16A00A162B043034
:10267000B200FA30C0000A12DF200A16B20B392B62
:10268000A0012008313C031C622B83160611831223
:1026900006150430B200C530B3000A1272220A16C1
:1026A000B20B4B2B83160611831206111330C00098
:1026B0000A12DF200A16C830B3000A1272220A1664
:1026C000A00A412B0430B200FA30C0000A12DF2009
:1026D0000A16B20B642BA0012008313C031C962B78
:1026E00083168610831286140130C0000A12DF2080
:1026F0000A160430B200AC30B3000A1272220A1675
:10270000B20B7B2B83168610831286101230C0000A
:102710000A12DF200A160230B2009330B3000A1208
:1027200072220A16B20B8D2BA00A6C2B3230C0001D
:102730000A12DF200A16A0012008313C031CC22B1C
:1027400083168610831286140130C0000A12DF201F
:102750000A160430B200C530B3000A1272220A16FB
:10276000B20BAB2B83168610831286101230C0007A
:102770000A12DF200A16C830B3000A1272220A16A3
:10278000A00A9C2B3230C0000A12DF200A16A001DA
:102790002008313C031CEE2B83168610831286140E
:1027A0000130C0000A12DF200A160430B200DE3009
:1027B000B3000A1272220A16B20BD72B83168610A8
:1027C000831286101230C0000A12DF200A1664300D
:1027D000B3000A1272220A16A00AC82B0430B200F3
:1027E000FA30C0000A12DF200A16B20BF02BA0014B
:1027F00020081D3C031C192C831686118312861594
:10280000A630F700F70B022C000083168611831206
:1028100086111330C0000A12DF200A160230B200FF
:10282000F730B3000A1272220A16B20B102CA00A5B
:10283000F82B0430B200FA30C0000A12DF200A166A
:10284000B20B1B2CA0012008313C031C452C831625
:10285000061183120615E830F700F70B2D2C302CEB
:10286000000083160611831206111330C0000A12ED
:10287000DF200A160230B2009330B3000A1272222F
:102880000A16B20B3C2CA00A232C0430B200FA30FA
:10289000C0000A12DF200A16B20B472CA001200844
:1028A0001D3C031C702C8316861183128615A630DE
:1028B000F700F70B592C000083168611831286113E
:1028C0001330C0000A12DF200A160230B200F730BF
:1028D000B3000A1272220A16B20B672CA00A4F2C00
:1028E0000430B200FA30C0000A12DF200A16B20B20
:1028F000722CA0012008313C031CA42C83168610E6
:10290000831286140130C0000A12DF200A1602303A
:10291000B200F730B3000A1272220A16B20B892CE9
:1029200083168610831286101230C0000A12DF2030
:102930000A160230B200F730B3000A1272220A16E9
:10294000B20B9B2CA00A7A2C0430B200FA30C000E3
:102950000A12DF200A16B20BA62CA0012008313C77
:10296000031CCF2C83160610831206140430B20009
:10297000DE30B3000A1272220A16B20BB82C83168C
:102980000610831206101330C0000A12DF200A1648
:102990006430B3000A1272220A16A00AAE2C043068
:1029A000B200FA30C0000A12DF200A16B20BD12C96
:1029B000A0012008313C031CFB2C83160611831256
:1029C0000615E830F700F70BE32CE62C0000831621
:1029D0000611831206111330C0000A12DF200A16F6
:1029E0000230B2009330B3000A1272220A16B20B00
:1029F000F22CA00AD92C0430B200FA30C0000A121E
:102A0000DF200A16B20BFD2CA0012008313C031C6C
:102A10002B2D83168610831286140130C0000A12F3
:102A2000DF200A160430B200C530B3000A12722249
:102A30000A16B20B142D83168610831286101230DC
:102A4000C0000A12DF200A16C830B3000A12722230
:102A50000A16A00A052D0430B200FA30C0000A128E
:102A6000DF200A16B20B2D2DA00120081D3C031CEF
:102A70004D2D83168611831286150130C0000A126F
:102A8000DF200A1683168611831286111330C000C8
:102A90000A12DF200A16A00A352D0430B200FA30DF
:102AA000C0000A12DF200A16B20B4F2DA001200829
:102AB000313C031C782D8316061183120615A630AF
:102AC000F700F70B612D0000831606118312061123
:102AD0001330C0000A12DF200A160230B200F730AD
:102AE000B3000A1272220A16B20B6F2DA00A572DDC
:102AF0000430B200FA30C0000A12DF200A16B20B0E
:102B00007A2DA0012008313C031CAC2D83168610C1
:102B1000831286140130C0000A12DF200A16023028
:102B2000B200F730B3000A1272220A16B20B912DCE
:102B300083168610831286101230C0000A12DF201E
:102B40000A160230B200F730B3000A1272220A16D7
:102B5000B20BA32DA00A822D0430B200FA30C000BF
:102B60000A12DF200A16B20BAE2D0130A407603026
:102B700003178D0000308F0003100F300313B200D5
:102B80000A12FD230A162408B2001B30B3000A12F1
:102B900095250A160830B200FA30C0000A12DF206C
:102BA0000A16B20BCC2D2408023C031D102E6930EE
:102BB00003178D0000308F000A12031327220A1614
:102BC000723003178D0000308F000A120313272282
:102BD0000A16A0012008133C031C062E2510250808
:102BE00083168700831207146430C0000A12DF20A6
:102BF0000A162510250883168700831207106430F3
:102C0000C0000A12DF200A16A00AEA2DA40108302B
:102C1000B200FA30C0000A12DF200A16B20B092EE9
:062C20008A150A16DF2AE6
:10300000A101A201A301A401FF30A50083161F1492
:103010009F141F159F1107309C0083131F308305D9
:10302000FF3085000030860087008312A5008316DC
:103030001F1383121F139F1783169F1783121F14CA
:1030400083161F109F101F159F110A128A118312D9
:10305000AC290A168A150A128A1186220A168A15BE
:103060000030F8001F08C73978049F000630F700C9
:10307000F70B382800001F151F193C2883161E085F
:103080008312A8001E08A9006430C0000A128A1129
:10309000DF200A168A152908B3002808B2000A1290
:1030A0008A112C230A168A157A08C2007908C100F1
:1030B0007808C0007708BF000A30C6002830C50075
:1030C0002030C4007730C3000A128A1149230A163F
:1030D0008A157A08B1007908B0007808AF0077083F
:1030E000AE006430C0000A128A11DF200A168A1569
:1030F0009A30B5009930B4001930B3007D30B20079
:103100003108B9003008B8002F08B7002E08B60003
:103110000A128A11BE230A168A15031C502B310885
:10312000B5003008B4002F08B3002E08B2003330C9
:10313000B900B8001330B7008030B6000A128A1107
:10314000BE230A168A15031C502B6430C0000A12D5
:103150008A11DF200A168A15853003178D0000308A
:103160008F000A128A11031327220A168A158E303D
:1031700003178D0000308F00031009300313B200D5
:103180000A128A11FD230A168A15893084002D0837
:10319000B5002C08B4002B08B3002A08B200023096
:1031A000B6000A128A11A0240A168A153230C0000D
:1031B0000A128A11DF200A168A150830F8001F0843
:1031C000C73978049F000630F700F70BE5280000A8
:1031D0001F151F19E92883161E088312A6001E0852
:1031E000A7006430C0000A128A11DF200A168A156F
:1031F0002708B3002608B2000A128A112C230A16E7
:103200008A157A08C2007908C1007808C0007708DA
:10321000BF000A30C6002830C5002030C400773017
:10322000C3000A128A1149230A168A157A08AD00CA
:103230007908AC007808AB007708AA000430B20027
:10324000FA30C0000A128A11DF200A168A15B20B62
:1032500020297B30B5001430B4006E30B3007F30CD
:10326000B2002D08B9002C08B8002B08B7002A08B6
:10327000B6000A128A11BE230A168A15031C942965
:103280002D08B5002C08B4002B08B3002A08B200A2
:10329000EC30B9005130B8007830B7007F30B6005C
:1032A0000A128A11BE230A168A15031C9429943027
:1032B00003178D0000308F000A128A110313272292
:1032C0000A168A159B3003178D0000308F000310FB
:1032D00009300313B2000A128A11FD230A168A1557
:1032E000893084002D08B5002C08B4002B08B300E9
:1032F0002A08B2000230B6000A128A11A0240A1667
:103300008A150230B200FA30C0000A128A11DF209A
:103310000A168A15B20B83290A1200280A160A1205
:103320008A1186220A168A156430C0000A128A1190
:10333000DF200A168A159A30B5009930B40079302A
:10334000B3007F30B2002D08B9002C08B8002B085C
:10335000B7002A08B6000A128A11BE230A168A1577
:10336000031C062A2D08B5002C08B4002B08B30056
:103370002A08B2009A30B9009930B8000930B70075
:103380008030B6000A128A11BE230A168A15031C61
:10339000062AA13003178D0000308F000A128A110F
:1033A000031327220A168A15A63003178D00003052
:1033B0008F00031009300313B2000A128A11FD2393
:1033C0000A168A15893084002D08B5002C08B4002F
:1033D0002B08B3002A08B2000230B6000A128A1184
:1033E000A0240A168A150230B200FA30C0000A1270
:1033F0008A11DF200A168A15B20BF5290A120C2B46
:103400000A160A128A1186220A168A156430C0002A
:103410000A128A11DF200A168A153330B500B4006B
:103420001330B3008030B2002D08B9002C08B8006A
:103430002B08B7002A08B6000A128A11BE230A1602
:103440008A15031C752A2D08B5002C08B4002B081A
:10345000B3002A08B200B901B8012030B7008030AB
:10346000B6000A128A11BE230A168A15031C752A91
:10347000AC3003178D0000308F000A128A1103133D
:1034800027220A168A15B13003178D0000308F00ED
:10349000031009300313B2000A128A11FD230A1621
:1034A0008A15893084002D08B5002C08B4002B083B
:1034B000B3002A08B2000230B6000A128A11A02412
:1034C0000A168A150230B200FA30C0000A128A11B8
:1034D000DF200A168A15B20B642A8A1100288A1581
:1034E0000A128A1186220A168A156430C0000A124E
:1034F0008A11DF200A168A153330B500B400B300F4
:103500007F30B2002D08B9002C08B8002B08B70096
:103510002A08B6000A128A11BE230A168A15031C4D
:10352000E52A2D08B5002C08B4002B08B3002A08A2
:10353000B2009A30B9009930B8005930B7007F30E6
:10354000B6000A128A11BE230A168A15031CE52A40
:10355000B73003178D0000308F000A128A11031351
:1035600027220A168A15BD3003178D0000308F0000
:10357000031009300313B2000A128A11FD230A1640
:103580008A15893084002D08B5002C08B4002B085A
:10359000B3002A08B2000230B6000A128A11A02431
:1035A0000A168A150230B200FA30C0000A128A11D7
:1035B000DF200A168A15B20BD42A8A110C2B8A1521
:1035C0000A128A1186220A168A156430C0000A126D
:1035D0008A11DF200A168A152D08B5002C08B400C0
:1035E0002B08B3002A08B2009A30B9009930B8000D
:1035F0003930B7007F30B6000A128A11BE230A168E
:103600008A1503181A2BE130B5007A30B400243043
:10361000B3008030B2002D08B9002C08B8002B0888
:10362000B7002A08B6000A128A11BE230A168A15A4
:10363000031C4F2BC33003178D0000308F000A127C
:103640008A11031327220A168A15CC3003178D001E
:1036500000308F00031009300313B2000A128A11E0
:10366000FD230A168A15893084002D08B5002C0820
:10367000B4002B08B3002A08B2000230B6000A12C8
:103680008A11A0240A168A150430B200FA30C0004C
:103690000A128A11DF200A168A15B20B462B812BDB
:1036A000D23003178D0000308F000A128A110313E5
:1036B00027220A168A15D83003178D0000308F0094
:1036C00003100A300313B2000A128A11FD230A16EE
:1036D0008A15893084003108B5003008B4002F08FD
:1036E000B3002E08B2000230B6000A128A11A024DC
:1036F0000A168A156430C0000A128A11DF200A16E1
:063700008A153028630069
:02400E00313F40
:00000001FF
;PIC16F877A
;CRC=D96F  CREATED="08-Oca-20 12:47"
